:0400000053EF3CF08E
:1078A600000EF86E00018BEF3DF0016E8B948B920B
:1078B6008B8000F001C08CFF00F08B901200036EED
:1078C6008B848B928B8003C08CFF00F000F08B9032
:1078D600030E026E8A0E016E560EE82EFED7012E9C
:1078E600FCD7022EFAD71200000E8B6E9490949459
:1078F6009492380E58EC3CF0030E036E8A0E026E1C
:10790600560EE82EFED7022EFCD7032EFAD70F0E00
:1079160058EC3CF0030E036E8A0E026E560EE82EED
:10792600FED7022EFCD7032EFAD7010E58EC3CF0F8
:10793600030E036E8A0E026E560EE82EFED7022E38
:10794600FCD7032EFAD71200000E066E04BEB0EF67
:107956003CF0AEEF3CF0B6EF3CF0036C041ED8B042
:10796600042A010E066E02BEBDEF3CF0BBEF3CF0F2
:10797600C3EF3CF0016C021ED8B0022A010E061AB3
:10798600000E086E000E076E03500410D8B4CEEF3A
:107996003CF0D0EF3CF0F8EF3CF0010E056ED8EF6E
:1079A6003CF0D89003360436052A04AEDDEF3CF0F1
:1079B600DFEF3CF0D4EF3CF0D890073608360350A2
:1079C600015C04500258D8A0EBEF3CF0EDEF3CF020
:1079D600F2EF3CF00350015E0450025A0780D89043
:1079E60004320332052EDFEF3CF00650D8B4FEEF2A
:1079F6003CF000EF3DF004EF3DF0076C081ED8B0F8
:107A0600082A07C001F008C002F01200036E44EF16
:107A16003DF0300E046E89EF3DF0310E046E89EFB5
:107A26003DF0320E046E89EF3DF0330E046E89EFA1
:107A36003DF0340E046E89EF3DF0350E046E89EF8D
:107A46003DF0360E046E89EF3DF0370E046E89EF79
:107A56003DF0380E046E89EF3DF0390E046E89EF65
:107A66003DF02B0E046E89EF3DF02D0E046E89EF6E
:107A76003DF02A0E046E89EF3DF02F0E046E89EF5D
:107A86003DF00350016E026A0250000AD8B44EEF70
:107A96003DF089EF3DF00150000AD8B40CEF3DF0FF
:107AA600010AD8B410EF3DF0030AD8B414EF3DF044
:107AB600010AD8B418EF3DF0070AD8B41CEF3DF020
:107AC600010AD8B420EF3DF0030AD8B424EF3DF004
:107AD600010AD8B428EF3DF00F0AD8B42CEF3DF0D8
:107AE600010AD8B430EF3DF0030AD8B434EF3DF0C4
:107AF600010AD8B438EF3DF0070AD8B43CEF3DF0A0
:107B0600010AD8B440EF3DF089EF3DF00450120071
:107B1600740ED36E000E0F015D6F000E946E000E94
:107B26005E6F000E956E000E5C6FF00E936E000E8B
:107B3600956E8B948B928B9077EC3CF0AEEC3EF08E
:107B46000F6E000E0E6E000E0C6E000E0D6EAFEF79
:107B56003DF0AEEC3EF00F6E780E0F18D8B4B6EFCF
:107B66003DF0B8EF3DF0ACEF3DF00F5009EC3DF0C5
:107B760062EC3CF00F5009EC3DF00C6E780E0F6E87
:107B8600150E0A6E4B0E096EBE0EE82EFED7092E96
:107B9600FCD70A2EFAD700D0D4EF3DF0AEEC3EF07B
:107BA6000F6E780E0F18D8B4DBEF3DF0DDEF3DF029
:107BB600D1EF3DF00F5009EC3DF062EC3CF00FC008
:107BC6000BF0780E0F6E150E0A6E4B0E096EBE0E7A
:107BD600E82EFED7092EFCD70A2EFAD700D0F7EFEB
:107BE6003DF0AEEC3EF00F6E780E0F18D8B4FEEFF7
:107BF6003DF000EF3EF0F4EF3DF00F5009EC3DF0A4
:107C060062EC3CF00F5009EC3DF00D6E780E0F6EF5
:107C1600150E0A6E4B0E096EBE0EE82EFED7092E05
:107C2600FCD70A2EFAD700D01CEF3EF0AEEC3EF0A1
:107C36000F6E0E0E0F18D8A423EF3EF025EF3EF080
:107C460019EF3EF03D0E62EC3CF00A0E0B18D8A47C
:107C56002FEF3EF031EF3EF03BEF3EF00D500C249F
:107C6600A00F0E6E0E50300F62EC3CF084EF3EF02B
:107C76000B0E0B18D8A442EF3EF044EF3EF04DEF4A
:107C86003EF00D500C5C0E6E0E50300F62EC3CF068
:107C960084EF3EF00C0E0B18D8A454EF3EF056EFCE
:107CA6003EF065EF3EF00DC009F0D00E09260C50EF
:107CB600D00F0902F3CF0EF00E50300F62EC3CF0FD
:107CC60084EF3EF00D0E0B18D8A46CEF3EF06EEF6D
:107CD6003EF084EF3EF0D00E0C24016E026AFF0ED9
:107CE6000222D00E0D24036E046AFF0E0422A7ECB6
:107CF6003CF001500E6E0E50300F62EC3CF084EFFB
:107D06003EF0780E0F6E150E0A6E4B0E096EBE0E05
:107D1600E82EFED7092EFCD70A2EFAD700D097EF09
:107D26003EF0AEEC3EF00F6E0F0E0F18D8A49EEF8D
:107D36003EF0A0EF3EF094EF3EF0150E0A6E4B0EAD
:107D4600096EBE0EE82EFED7092EFCD70A2EFAD7EC
:107D560000D000EF00F08A908A828A848A861A0E02
:107D6600016EF80EE82EFED7012EFCD700D081B8A2
:107D7600BFEF3EF0C1EF3EF0CCEF3EF01A0E016EC3
:107D8600F80EE82EFED7012EFCD700D0010EFFEF2D
:107D96003FF081BAD1EF3EF0D3EF3EF0DEEF3EF09A
:107DA6001A0E016EF80EE82EFED7012EFCD700D073
:107DB600020EFFEF3FF081BCE3EF3EF0E5EF3EF051
:107DC600F0EF3EF01A0E016EF80EE82EFED7012EE9
:107DD600FCD700D0030EFFEF3FF081BEF5EF3EF07B
:107DE600F7EF3EF002EF3FF01A0E016EF80EE82EA6
:107DF600FED7012EFCD700D00A0EFFEF3FF08A8097
:107E06008A928A848A861A0E016EF80EE82EFED7AA
:107E1600012EFCD700D081B813EF3FF015EF3FF0ED
:107E260020EF3FF01A0E016EF80EE82EFED7012E57
:107E3600FCD700D0040EFFEF3FF081BA25EF3FF0EC
:107E460027EF3FF032EF3FF01A0E016EF80EE82EE4
:107E5600FED7012EFCD700D0050EFFEF3FF081BC08
:107E660037EF3FF039EF3FF044EF3FF01A0E016E67
:107E7600F80EE82EFED7012EFCD700D0060EFFEF37
:107E86003FF081BE49EF3FF04BEF3FF056EF3FF03A
:107E96001A0E016EF80EE82EFED7012EFCD700D082
:107EA6000B0EFFEF3FF08A808A828A948A861A0E2A
:107EB600016EF80EE82EFED7012EFCD700D081B851
:107EC60067EF3FF069EF3FF074EF3FF01A0E016E77
:107ED600F80EE82EFED7012EFCD700D0070EFFEFD6
:107EE6003FF081BA79EF3FF07BEF3FF086EF3FF04E
:107EF6001A0E016EF80EE82EFED7012EFCD700D022
:107F0600080EFFEF3FF081BC8BEF3FF08DEF3FF0A7
:107F160098EF3FF01A0E016EF80EE82EFED7012EEE
:107F2600FCD700D0090EFFEF3FF081BE9DEF3FF07A
:107F36009FEF3FF0AAEF3FF01A0E016EF80EE82E03
:107F4600FED7012EFCD700D00C0EFFEF3FF08A8043
:107F56008A828A848A961A0E016EF80EE82EFED759
:107F6600012EFCD700D081B8BBEF3FF0BDEF3FF04C
:107F7600C8EF3FF01A0E016EF80EE82EFED7012E5E
:107F8600FCD700D00E0EFFEF3FF081BACDEF3FF0E9
:107F9600CFEF3FF0DAEF3FF01A0E016EF80EE82E43
:107FA600FED7012EFCD700D0000EFFEF3FF081BCBC
:107FB600DFEF3FF0E1EF3FF0ECEF3FF01A0E016E1E
:107FC600F80EE82EFED7012EFCD700D00F0EFFEFDD
:107FD6003FF081BEF1EF3FF0F3EF3FF0FEEF3FF0F1
:107FE6001A0E016EF80EE82EFED7012EFCD700D031
:0A7FF6000D0EFFEF3FF0780E1200B1
:020000040020DA
:08000000FFFFFFFFFFFFFFFF00
:020000040030CA
:0E00000002285F3CFFD185FF0FC00FE00F40CC
:00000001FF
